:020000040800F2
:10000000A0060020ED0100083F110008ED100008D7
:100010003D1100083B040008BB110008000000006F
:100020000000000000000000000000004311000874
:100030003D040008000000004111000845110008BF
:10004000070200080702000807020008070200086C
:10005000070200080702000807020008070200085C
:10006000070200080702000807020008070200084C
:10007000070200080702000807020008070200083C
:10008000070200080702000807020008070200082C
:10009000070200080702000807020008070200081C
:1000A000070200080702000807020008070200080C
:1000B00007020008070200080702000807020008FC
:1000C00007020008070200080702000807020008EC
:1000D00007020008070200080702000807020008DC
:1000E00007020008070200080702000800000000DD
:1000F0000000000000000000000000000000000000
:1001000000000000000000000702000807020008CD
:10011000070200080702000807020008070200089B
:10012000070200080702000807020008070200088B
:10013000070200080702000807020008070200087B
:10014000070200080702000807020008070200086B
:1001500000F002F800F03AF80AA090E8000C82449F
:100160008344AAF10107DA4501D100F02FF8AFF27C
:10017000090EBAE80F0013F0010F18BFFB1A43F085
:1001800001031847B0100000D0100000103A24BF3F
:1001900078C878C1FAD8520724BF30C830C144BFEC
:1001A00004680C607047000000230024002500262E
:1001B000103A28BF78C1FBD8520728BF30C148BFCA
:1001C0000B6070471FB51FBD10B510BD00F0CFF814
:1001D0001146FFF7F7FF01F001F800F0EDF803B466
:1001E000FFF7F2FF03BC00F0F5F800000948804774
:1001F00009480047FEE7FEE7FEE7FEE7FEE7FEE709
:10020000FEE7FEE7FEE7FEE704480549054A064B20
:1002100070470000B911000851010008A00000203B
:10022000A0060020A0020020A002002053EA020C39
:1002300000F069802DE9F04B4FF00006002B1FBF46
:10024000B3FA83F503FA05F424FA05F65E4012BF0B
:100250001643B2FA82F502FA05F4C5F120051EBF75
:1002600022FA05FC44EA0C04203556EA044C4FEA15
:10027000144418BF641C4FF000084FF0000990426E
:1002800071EB030C39D3002919BFB1FA81F701FAD8
:1002900007F6B0FA80F700FA07F6C7F120071EBF8D
:1002A00020FA07FC46EA0C062037B6FBF4FCA7EB65
:1002B0000507103F07F01F0BCBF120060CFA0BFBD4
:1002C0002CFA06F644BFB3460026202FA4BF5E4694
:1002D0004FF0000B5BEA060C08BF4FF0010B19EB67
:1002E0000B09ABFB027C48EB0608C01B06FB02CCEB
:1002F0000BFB03CC71EB0C01C1E70B4602464146F8
:100300004846BDE8F08B13B54FF000004FF00001F8
:10031000AFF30080BDE81C4070474FF0000200B50D
:10032000134694469646203922BFA0E80C50A0E818
:100330000C50B1F12001BFF4F7AF090728BFA0E8C6
:100340000C5048BF0CC05DF804EB890028BF40F892
:10035000042B08BF704748BF20F8022B11F0804FD4
:1003600018BF00F8012B70477047704770477546FB
:1003700000F02CF8AE4605006946534620F0070011
:10038000854618B020B5FFF73FFFBDE820404FF08D
:1003900000064FF000074FF000084FF0000B21F06F
:1003A0000701AC46ACE8C009ACE8C009ACE8C0093C
:1003B000ACE8C0098D46704710B50446AFF3008025
:1003C0002046BDE81040FFF70ABF00000048704714
:1003D0004000002001491820ABBEFEE726000200C5
:1003E0007047000070B5044600688168C943C907BA
:1003F00017D1816821F00101816000F049FA0546BA
:100400000AE000BF00F044FA401B022804D920682B
:100410008068C043C00706D020688068C043C0071A
:10042000F0D0002070BDA06A40F01000A062E06A29
:1004300040F00100E062012070BDFEE7704700005F
:10044000F8B50024009490F824202546012A12D003
:10045000012280F824204A681F23072A0DD206684B
:10046000776B521E02EB820293409F430B689340CE
:100470001F43776319E00220F8BD06680D2A0AD2EF
:10048000376BD21F02EB820293409F430B6893406D
:100490001F43376309E0F76A0D3A02EB820293408B
:1004A0009F430B6893401F43F7620A68072306685F
:1004B0000A2A0AD3F7680A3A02EB420293409F43A2
:1004C0008B6893401F43F76008E0376902EB4202F4
:1004D00093409F438B6893401F4337610A68102AFB
:1004E00001D0112A20D1124B02689A4217D1936889
:1004F0001B0219D4936843F4000393600968102920
:1005000012D10C490C4A0968B1FBF2F101EB8101EF
:10051000490000E0491E00910029FBD104E0816AF6
:1005200041F020018162012480F824502046F8BD6A
:10053000002401400C00002040420F002DE9F04152
:100540004FF0000704003D467ED0A06A002628B97F
:10055000E66284F82460204600F07EF82046FFF72B
:1005600041FFA16AC90600D420B1A06A40F0100082
:10057000A06269E0A16A21F4885141F00201A16200
:100580006268E169237B0A4347EA43010A43A168A1
:100590004FF48077B94209D0012907D05FF00001FC
:1005A00094F814C0BCF1010F02D00AE03946F7E715
:1005B000F3B1A36A43F02003A362E36A43F00103AB
:1005C000E3622368D3F804C02CF4694C4CEA010CB4
:1005D000C3F804C021688B68DFF870C003EA0C031D
:1005E00013438B60A168B9420BD0012909D00CE0FC
:1005F000DFF85CC0A3690CEB43330B4343F40061A9
:10060000DFE7218A0D05A5F580152168CB6A23F463
:1006100070032B43CB62216889680E4B19409142CD
:1006200008D1E662A16A21F0020141F00101A16254
:10063000BDE8F081A06A20F0020040F01000A06246
:10064000E06A40F00100E0620120F1E7FDF7E1FF20
:1006500000E0FFFFFE0E1FFF00B585B000210091F6
:1006600001910291039100680E49884218D10E4809
:10067000816941F400718161816901F40071049123
:10068000816941F0040181618069694600F00400DC
:1006900004900120009003200190044800F008F825
:1006A00005B000BD002401400010024000080140D8
:1006B0002DE9F84FDFF8B8910024A9F1040B234687
:1006C0000F2709F1040AABF1040EC9E00125A5408A
:1006D0002A40AA427DD1674ED1F804C0ACEB06088F
:1006E000B44532D014DCBCF1030F3AD009DCBCF1C4
:1006F000000F2AD0BCF1010F1CD0BCF1020F31D188
:100700001DE0BCF1110F17D0BCF1120F2AD119E076
:10071000B8F5881F19D006DCB8F5803F15D0B8F5BC
:10072000801F1FD111E0B8F5001F0ED0B8F5041FCF
:1007300018D10AE0CB6815E0CB681B1D12E0CB682E
:1007400008330FE0CB680C330CE08B682BB1012B26
:100750004FF0080303D0456104E0042302E0056183
:1007600000E00023FF2A01D8064601E000F104065C
:100770004FEA840501D9A5F12005D6F8008007FAD3
:1007800005FC28EA0C0803FA05F548EA0508C6F84E
:1007900000804D68ED0062D5374DAE6946F0010628
:1007A000AE61AD6924F0030605F001050095334DF7
:1007B00006EB050CDCF80850A607360F07FA06F81A
:1007C00025EA0805DFF8B880404503D14FF000085E
:1007D00017E044E0DFF8AC80404502D14FF001085B
:1007E0000FE0DFF8A480404502D14FF0020808E096
:1007F000DFF89880404502D14FF0030801E04FF048
:10080000040808FA06F848EA0508CCF808804D689C
:10081000D9F80060ED024D4601D5164300E096433D
:100820002E604D68DAF80060AD02554601D51643DA
:1008300000E096432E604D68DBF80060AD035D4636
:1008400001D5164300E096432E604D68DEF8006047
:10085000ED03754601D5164300E096432E60641CF7
:100860000D682A46E5407FF431AFBDE8F88F0000FF
:100870000804014000001110001002400000014077
:1008800000080140000C014000100140001401402C
:10089000014880687047000000000020024881681D
:1008A000027811448160704700000020074810B5AD
:1008B000016841F010010160032000F05FF80F2093
:1008C00000F006F800F024F8002010BD00200240DF
:1008D00070B50D4D04464FF47A712878B1FBF0F0F5
:1008E0000A490968B1FBF0F000F0ECFB48B9102CA4
:1008F00007D200222146501E00F020F800206C6034
:1009000070BD012070BD0000000000200C00002020
:10091000094808B5816941F001018161816901F0EF
:1009200001010091C16941F08051C161C06900F0CD
:100930008050009008BD000000100240F0B40E4B43
:100940001B680C46C3F30223C3F10705042D00D92D
:100950000425191D072901D2002300E0DB1E012612
:1009600006FA05F1491E214099409E40761E164028
:100970003143F0BC00F022BC0CED00E0064900F071
:10098000070208684FF6FF03184040EA0220034AB6
:1009900010430860704700000CED00E00000FA050D
:1009A0002DE9F843044600785B4DC0074FF001097C
:1009B00051D0E8690026C00008D4E86940F08050B2
:1009C000E861E869012600F0805000905348016812
:1009D000C90512D40168804641F480710160FFF7B7
:1009E00057FF074605E000BFFFF752FFC01B642812
:1009F00077D8D8F80000C005F6D5286A10F4407002
:100A00001ED0A18801F44071814219D0286A44495E
:100A100020F44070C1F8009000220A602862C007EC
:100A20000ED0FFF735FF074641F2883805E000BFDA
:100A3000FFF72EFFC11B414553D8286A8007F7D521
:100A4000286A616820F44070084328621EB1E86992
:100A500020F08050E8612078800705D56868A1689B
:100A600020F44040084368602078400705D5E86AD4
:100A7000E16820F400300843E8622078000705D5DB
:100A8000E86A216920F480200843E862E86A80036C
:100A900002D4E86A400333D52868C00028D4286807
:100AA000400105D5E86AA16900F0F000884225D12F
:100AB000E86AA16920F0F0000843E862E86A616929
:100AC00020F470400843E8621649C1F87090FFF7BF
:100AD000DFFE064608E004E0FFF7DAFE801B64282C
:100AE00002D90320BDE8F88328688000F4D507E028
:100AF000E86A616900F47040884201D00120F1E7A2
:100B00002078C00605D56868E16920F480000843B4
:100B100068600020E6E7000000100240007000401E
:100B200040044242000042422DE9F0470F460500D2
:100B300061D0434E306800F00700B84209D23068F7
:100B400020F0070038433060306800F00700B842FA
:100B500051D128683B4C810712D5400703D5606806
:100B600040F4E06060602878000703D5606840F4D6
:100B7000605060606068A96820F0F0000843606021
:100B80002878C00728D06868012810D0216802287A
:100B900010D0890700292EDA616821F00301014392
:100BA0006160FFF775FE804641F288390DE02168EB
:100BB0008903EFE78901EDE7FFF76AFEA0EB080183
:100BC000494502D90320BDE8F0876068696800F0F4
:100BD0000C00B0EB810FEFD1306800F00700B84295
:100BE0000BD9306820F0070038433060306800F0DF
:100BF0000700B84201D00120E5E72878400705D575
:100C00006068E96820F4E0600843606028780007C5
:100C100006D56068296920F4605040EAC100606030
:100C200000F018F86168084AC1F30311515CC8402C
:100C30000649086006480068FFF74AFE0020C2E740
:100C40000020024000100240221200080C00002088
:100C5000040000202DE9F0411D494A681D4802F0BA
:100C60000C03042B2ED0082B2CD11B48C2F383433A
:100C7000C45CD00328D5C86A174A00F00F000E32B2
:100C8000105CCA6AD20316D5CA6AC96AC2F30312D3
:100C9000C1F30321521C891CA2FB0023A1FB0415F4
:100CA0000C4F0026A1FB070C05FB07C501FB0651F5
:100CB000FFF7BCFA03E007496143B1FBF0F00D2CEC
:100CC00000D14008BDE8F08104486043FAE7000025
:100CD0000010024000127A000412000800093D00D2
:100CE0002DE9F84F040070D02078F14DC00749D0AD
:100CF0006868C0F38100012807D06868C0F38100EC
:100D0000022809D16868C00306D52868800339D550
:100D1000A0680028E7D035E0A068B0F5803F0BD090
:100D200010B1B0F5A02F11D0286820F480302860D1
:100D3000286820F4802002E0286840F48030286091
:100D4000A06890B1FFF7A4FD06460AE0286840F4C9
:100D500080202860F0E700BFFFF79AFD801B642821
:100D600076D828688003F7D50CE0FFF791FD06469A
:100D700005E000BFFFF78CFD801B6428F0D82868D1
:100D80008003F7D42078CB4E80074FF001094FF055
:100D900000073AD5686810F00C0F07D06868C0F3F8
:100DA0008100022809D16868C00306D4286880073A
:100DB00015D56069012808D111E06069B8B1C6F89D
:100DC0000090FFF765FD804606E042E1FFF760FD19
:100DD000A0EB08000228C3D828688007F6D5286849
:100DE000A16920F0F80040EAC10028600DE03760FA
:100DF000FFF74EFD804605E0FFF74AFDA0EB080037
:100E00000228ADD828688007F6D4207800072ED5B0
:100E1000A948E169E9B1C0F80090FFF739FD8046C3
:100E200006E000BFFFF734FDA0EB0800022897D8CA
:100E3000686A8007F6D5A1484FF4FA510068B0FB04
:100E4000F1F0009000BF0098411E0091FAD20EE030
:100E5000B0E00760FFF71CFD804605E0FFF718FDD6
:100E6000A0EB0800022889D8686A8007F6D42078A9
:100E7000400763D5E8694FF00008C00009D4E8696D
:100E800040F08050E861E8694FF0010800F08050C0
:100E900000908B480168C90512D40168834641F46B
:100EA00080710160FFF7F4FC824605E0FFF7F0FC7B
:100EB000A0EB0A0064287DD8DBF80000C005F5D55A
:100EC000206901280AD008B1052813D0286A20F02B
:100ED00001002862286A20F0040002E0286A40F03D
:100EE00001002862206941F2883B98B1FFF7D0FCED
:100EF00082460BE0286A40F004002862EEE700BF5B
:100F0000FFF7C6FCA0EB0A01594553D8286A8007B1
:100F1000F6D50CE0FFF7BCFC824605E0FFF7B8FC15
:100F2000A0EB0A01594545D8286A8007F6D4B8F1E4
:100F3000000F03D0E86920F08050E861E06AD0B388
:100F40006968C90307D56968C1F38101022902D123
:100F5000E96AC9037DD4022808D0E86A20F4803009
:100F6000E862B766FFF794FC80463BE02868C00063
:100F700005D5E86A616B00F0F000884269D1B76678
:100F8000FFF786FC804605E0FFF782FCA0EB080037
:100F9000642874D828680001F6D4E86A616B20F0F0
:100FA000F0000843E862E86A216B20F470600843AF
:100FB000E86201E063E018E0C6F86890FFF768FCBB
:100FC000804605E0FFF764FCA0EB0800642856D8D3
:100FD00028680001F6D508E0FFF75AFCA0EB0800EE
:100FE00064284CD828680001F6D4206A90B3696858
:100FF000C1F38101022949D00228376603D0FFF7E7
:1010000047FC04463EE0FFF743FC074605E000BF0F
:10101000FFF73EFCC01B022831D828688001F7D4B6
:10102000606AB0F5803F09D1E86A61680843E86208
:10103000E86AE16820F00F000843E862D4E909019A
:101040000843696821F4741108436860C6F8609029
:1010500001E028E029E0FFF71BFC044605E000BFA3
:10106000FFF716FC001B022809D828688001F7D575
:101070001BE000BFFFF70CFC001B022802D9032075
:10108000BDE8F88F28688001F4D40EE00128F7D07D
:101090006868626A00F48031914204D1A16A00F468
:1010A0007010884201D00120EAE70020E8E7000044
:1010B0000010024000004242800442420C00002026
:1010C0000070004010B5401EB0F1807F01D30120B8
:1010D00010BD4FF0E02460610F21601700F06EF842
:1010E0000020A06107202061002010BDFEE7000065
:1010F0003EB5002410480094019402940D49846088
:10110000016004730475012505614FF4602144609A
:10111000C161FFF713FA08B172B6FEE7CDE90045E9
:10112000694605480294FFF78BF9002801D072B692
:10113000FEE73EBD0024014010000020FEE7FEE770
:1011400070477047FFF7AABB70B59CB0382168465E
:10115000FFF7E3F814210EA8FFF7DFF8202113A80A
:10116000FFF7DBF8002402250126102008940095E3
:101170000B94CDE905606846FFF7B2FD08B172B681
:10118000FEE70F20CDE90E041094119400210EA863
:101190001294FFF7C9FC08B172B6FEE713A81395C5
:1011A0001594FFF7FDFB08B172B6FEE7014806672C
:1011B0001CB070BD000042427047FEE70907090EEF
:1011C000002804DB00F1E02080F80014704700F0F4
:1011D0000F0000F1E02080F8141D704708B5FFF7FC
:1011E00065FBFFF7B1FF0648816941F004018161A9
:1011F000806900F004000090FFF77AFFFEE700002E
:101200000010024000000405060708090000000065
:10121000000D0102030405060708090A0B0C0D0E58
:101220000F10000000000000000001020304060788
:1012300008090000541200080000002010000000FF
:101240008C010008641200081000002090060000C5
:10125000A8010008010000001000000000000000CC
:041260000024F40072
:04000005080001519D
:00000001FF
